:020000040800F2
:10400000104000208D4600081D4600081F4600088D
:10401000214600082346000825460008000000004D
:10402000000000000000000000000000274600081B
:1040300029460008000000002B4600082D46000815
:10404000B5460008B9460008BD460008C14600084C
:10405000C5460008C9460008CD460008D1460008FC
:10406000D5460008D9460008DD460008E1460008AC
:10407000E5460008E9460008ED460008F14600085C
:10408000F5460008F9460008FD460008014700080B
:1040900005470008094700080D47000811470008B8
:1040A00015470008194700081D4700082147000868
:1040B00025470008294700082D4700083147000818
:1040C00035470008394700083D47000841470008C8
:1040D00045470008494700084D4700085147000878
:1040E00055470008594700085D4700086147000828
:1040F00065470008694700086D47000871470008D8
:1041000075470008794700087D4700088147000887
:1041100085470008894700088D4700089147000837
:1041200095470008994700089D470008A1470008E7
:10413000A5470008A9470008AD470008B147000897
:10414000B5470008B9470008BD470008C147000847
:10415000C5470008C9470008CD470008D1470008F7
:10416000D5470008D9470008DD470008E1470008A7
:10417000E5470008E9470008ED470008F147000857
:10418000F5470008F9470008FD4700080148000806
:1041900005480008094800080D48000811480008B3
:1041A00000000000000000001548000847F6FF71FD
:1041B0004843401C0100481E0029FBD1704770B4E1
:1041C0000022002047490B6853F470030B60464BF4
:1041D000196851F001011960444C002121601D68EB
:1041E00043490D401D604349434D0D601D6835F442
:1041F00080251D600025414E35601D6855F48035D1
:104200001D601D6815F400352800521C002802D1DD
:10421000B2F5A04FF5D11D68AD0301D5012500E031
:104220000025012D2ED13648066856F080560660CE
:104230003448066856F440460660206820602068CE
:1042400050F400402060206850F4A05020602E48B8
:104250000860186850F08070186018688001FCD5FC
:1042600040F20560294908602068800880002060CD
:10427000206850F002002060206810F00C00082830
:10428000FAD100E0FEE770BC704710B504000121D0
:104290001F4800F045F80121102000F04FF80121DF
:1042A0005FF4F01000F058F8012145F2100000F022
:1042B00061F810BD174818490860704780B5FFF7CE
:1042C0007EFFFFF7F7FF0120FFF7DFFF72B66420E4
:1042D000FFF76CFF00F092F862B601200F4908600A
:1042E00001BD000088ED00E00038024008380240BF
:1042F000FFFFF6FE04380240103000240C38024064
:1043000040380240007000400C544007003C02401E
:104310000F0060000040000808ED00E000000020F1
:104320000A00D2B2002A04D0194A1368034313606A
:1043300003E0174A13688343136070470A00D2B240
:10434000002A04D0134A13680343136003E0114AA0
:1043500013688343136070470A00D2B2002A04D066
:104360000D4A13680343136003E00B4A1368834349
:10437000136070470A00D2B2002A04D0074A1368BB
:104380000343136003E0054A1368834313607047D7
:10439000303802403438024040380240443802404D
:1043A00010B4020052B2002A09D50A011D4B0400C4
:1043B00064B214F00F04234403F8042C04E00A014F
:1043C000194B040064B21A5510BC704710B50400B4
:1043D000601EB0F1807F01D301200EE0601E134902
:1043E00008600F215FF0FF30FFF7DAFF002010496F
:1043F000086007200F490860002010BD80B5042028
:1044000000F020F80C48FFF7E1FF00200B4908609E
:1044100000200B49086000215FF0FF30FFF7C0FF6C
:1044200001BD000018ED00E000E400E014E000E051
:1044300018E000E010E000E040D10C000400002093
:1044400008000020042805D106490A6852F0040239
:104450000A6004E003490A6832F004020A60704707
:104460000000000010E000E080B53B48016851F416
:10447000700101603949086850F0010008600020AF
:10448000374A10600A68374802400A603648374A9F
:104490001060086830F4802008600020344908600B
:1044A00000F004F833483449086001BD82B00020B0
:1044B0000190002000902949086850F4803008607D
:1044C000086810F4003000900198401C019000989A
:1044D000002803D10198B0F5A04FF1D108688003FE
:1044E00002D50120009001E00020009000980128F2
:1044F0002FD12248026852F08052026020480268A0
:1045000052F440420260164802680260026852F4A7
:1045100000420260026852F4A0520260194A134B32
:104520001A600A6852F080720A600A689201FCD52B
:1045300040F20571144A1160016889088900016020
:10454000016851F002010160016811F00C010829B5
:10455000FAD102B07047000088ED00E00038024058
:1045600008380240FFFFF6FE1030002404380240F5
:104570000C3802400040000808ED00E040380240DE
:104580000070004019544007003C024030B40EE077
:104590000268436802440830DC0744BFA9F1010403
:1045A000E31852F8045B43F8045B091FF9D150F893
:1045B000041B0029ECD130BC7047000010B507493E
:1045C00079441831064C7C44163404E00A68081D0E
:1045D000114488470146A142F8D110BD2C000000CB
:1045E0003C0000004EF68851CEF20001086840F40D
:1045F00070000860BFF34F8FBFF36F8F4FF00070F4
:10460000E1EE100A7047000085FFFFFF0C0000007C
:10461000980000000000002000000000FEE7FEE718
:10462000FEE7FEE7FEE7FEE7FEE7FEE70248016879
:10463000491C0160704700000400002000F00DF8E4
:10464000002801D0FFF7BAFFAFF300800020AFF3DE
:10465000008000F004F800F006F80120704780B5F3
:10466000FFF72CFEFEE700F001B8000007463846D1
:1046700000F002F8FBE7000080B5AFF30080024ACB
:1046800011001820ABBEFBE726000200014880475E
:1046900001480047694400089D460008AFF30080C8
:1046A000FFF7A0FFFFF7CAFF0100000000000000B5
:1046B00000000000FFF7FEBFFFF7FEBFFFF7FEBFE1
:1046C000FFF7FEBFFFF7FEBFFFF7FEBFFFF7FEBF1E
:1046D000FFF7FEBFFFF7FEBFFFF7FEBFFFF7FEBF0E
:1046E000FFF7FEBFFFF7FEBFFFF7FEBFFFF7FEBFFE
:1046F000FFF7FEBFFFF7FEBFFFF7FEBFFFF7FEBFEE
:10470000FFF7FEBFFFF7FEBFFFF7FEBFFFF7FEBFDD
:10471000FFF7FEBFFFF7FEBFFFF7FEBFFFF7FEBFCD
:10472000FFF7FEBFFFF7FEBFFFF7FEBFFFF7FEBFBD
:10473000FFF7FEBFFFF7FEBFFFF7FEBFFFF7FEBFAD
:10474000FFF7FEBFFFF7FEBFFFF7FEBFFFF7FEBF9D
:10475000FFF7FEBFFFF7FEBFFFF7FEBFFFF7FEBF8D
:10476000FFF7FEBFFFF7FEBFFFF7FEBFFFF7FEBF7D
:10477000FFF7FEBFFFF7FEBFFFF7FEBFFFF7FEBF6D
:10478000FFF7FEBFFFF7FEBFFFF7FEBFFFF7FEBF5D
:10479000FFF7FEBFFFF7FEBFFFF7FEBFFFF7FEBF4D
:1047A000FFF7FEBFFFF7FEBFFFF7FEBFFFF7FEBF3D
:1047B000FFF7FEBFFFF7FEBFFFF7FEBFFFF7FEBF2D
:1047C000FFF7FEBFFFF7FEBFFFF7FEBFFFF7FEBF1D
:1047D000FFF7FEBFFFF7FEBFFFF7FEBFFFF7FEBF0D
:1047E000FFF7FEBFFFF7FEBFFFF7FEBFFFF7FEBFFD
:1047F000FFF7FEBFFFF7FEBFFFF7FEBFFFF7FEBFED
:10480000FFF7FEBFFFF7FEBFFFF7FEBFFFF7FEBFDC
:08481000FFF7FEBFFFF7FEBF3A
:040000050800469D0C
:00000001FF
