:020000040800F2
:10000000A0400020AD0A0008B1090008B3090008AB
:10001000B5090008B7090008B90900080000000088
:10002000000000000000000000000000BB09000804
:10003000BD09000800000000BF090008C109000850
:10004000D50A0008D90A0008DD0A0008E10A0008FC
:10005000E50A0008E90A0008ED0A0008F10A0008AC
:10006000F50A0008F90A0008FD0A0008010B00085B
:10007000050B0008090B00080D0B0008110B000808
:10008000150B0008190B00081D0B0008210B0008B8
:10009000250B0008290B00082D0B0008310B000868
:1000A000350B0008390B00083D0B0008410B000818
:1000B000450B0008490B00084D0B0008510B0008C8
:1000C000550B0008590B00085D0B0008610B000878
:1000D000650B0008690B00086D0B0008710B000828
:1000E000750B0008790B00087D0B0008810B0008D8
:1000F000850B0008890B00088D0B0008910B000888
:10010000950B0008990B00089D0B0008A10B000837
:10011000A50B0008A90B0008AD0B0008B10B0008E7
:10012000B50B0008B90B0008BD0B0008C10B000897
:10013000C50B0008C90B0008CD0B0008D10B000847
:10014000D50B0008D90B0008DD0B0008E10B0008F7
:10015000E50B0008E90B0008ED0B0008F10B0008A7
:10016000F50B0008F90B0008FD0B0008010C000856
:10017000050C0008090C00080D0C0008110C000803
:10018000150C0008190C00081D0C0008210C0008B3
:10019000250C0008290C00082D0C0008310C000863
:1001A0000000000000000000350C000847F6FF7159
:1001B0004843401C0100481E0029FBD1704770B421
:1001C0000022002066490B6853F470030B60654BF6
:1001D000196851F001011960634C002121601D680C
:1001E00062490D401D606249624D0D601D6835F425
:1001F00080251D600025604E35601D6855F48035F2
:100200001D601D6815F400352800521C002802D11D
:10021000B2F5A04FF5D11D68AD0301D5012500E071
:100220000025012D2ED15548066856F080560660EF
:100230005348066856F440460660206820602068EF
:1002400050F400402060206850F4A05020604D48D9
:100250000860186850F08070186018688001FCD53C
:1002600040F20560484908602068800880002060EE
:10027000206850F002002060206810F00C00082870
:10028000FAD100E0FEE770BC704710B50400012110
:100290003E4800F085F80121102000F08FF8012180
:1002A0005FF4F01000F098F8012145F2100000F022
:1002B000A1F810BD5FF0006035490860704780B557
:1002C000FFF77DFFFFF7F6FF0120FFF7DEFF72B6B5
:1002D0006420FFF76BFF00F0D1F800F0F3F800F0B6
:1002E00043F962B601202B49086001BD38B5294C9D
:1002F0002078800731D5002500F074F9102290FB9A
:10030000F2F102FB1101244802880A41D20710D5FC
:10031000224A0B00DBB202EBC3039B880D00EDB257
:1003200052F835205383028801238B409A43028080
:100330000FE01A4A0B00DBB202EBC3039B880D00EF
:10034000EDB252F835201383028801238B401A4303
:100350000280206830F00200206031BD0000000003
:1003600088ED00E00038024008380240FFFFF6FE4A
:1003700004380240103000240C380240403802405B
:10038000007000400C544007003C02401F00600019
:1003900008ED00E00000002098000020300900086F
:1003A0000A00D2B2002A04D0194A1368034313602A
:1003B00003E0174A13688343136070470A00D2B200
:1003C000002A04D0134A13680343136003E0114A60
:1003D00013688343136070470A00D2B2002A04D026
:1003E0000D4A13680343136003E00B4A1368834309
:1003F000136070470A00D2B2002A04D0074A13687B
:100400000343136003E0054A136883431360704796
:10041000303802403438024040380240443802400C
:1004200010B4020052B2002A09D50A011D4B040083
:1004300064B214F00F04234403F8042C04E00A010E
:10044000194B040064B21A5510BC704710B5040073
:10045000601EB0F1807F01D301200EE0601E1349C1
:1004600008600F215FF0FF30FFF7DAFF002010492E
:10047000086007200F490860002010BD80B50420E7
:1004800000F002F90C48FFF7E1FF00200B4908607B
:1004900000200B49086000215FF0FF30FFF7C0FF2C
:1004A00001BD000018ED00E000E400E014E000E011
:1004B00018E000E010E000E040D10C0090000020C7
:1004C000940000203EB50024082100226D4628003B
:1004D00000F0ECF801208DF8040000208DF80600F3
:1004E00000208DF8070002208DF805000025280067
:1004F000C0B210280FDA08482900C9B200EBC101C8
:100500008988009169462A00D2B250F8320000F082
:1005100017F96D1CEBE737BD3009000847F6FF718E
:100520004843401C0100481E0029FBD1704730B4ED
:10053000002513E050F8042BD30744BFA9F10103B1
:100540009A18091F042942F8045BFAD213468C0753
:1005500044BF15809B1CC90748BF1D7050F8041B81
:100560000029E7D130BC704738B5002000242000B6
:10057000C0B2102815DA19482100C9B200EBC10138
:1005800089882200D2B250F83200018314480188D1
:100590000122A240114301806420FFF7BFFF641CC9
:1005A000E5E700252800C0B2102815DA0B4829001D
:1005B000C9B200EBC10189882A00D2B250F83200DA
:1005C0004183074801880122AA40914301806420A9
:1005D000FFF7A4FF6D1CE5E731BD00BF300900083F
:1005E00098000020F0B5244C244A2078244B6FF06A
:1005F000004150BB0820656803FB05250E46B5FB8E
:10060000F6F601FB1655401E6560F4D11D4D2E46D1
:100610001020676803FB07278C46B7FBFCFC01FB37
:100620001C77676046F8047B8E4603FB0727B7FB01
:10063000FEFE01FB1E776760401E46F8047BE8D192
:10064000E86FC5F8800001252570606803FB002273
:100650000B46B2FBF3F301FB13210A4A616092F8E7
:10066000803003F01F0352F82300C2F8800042F8E4
:10067000231020F04040F0BD040000205FF36E3CEA
:100680000D6619000C000020042805D106490A68EF
:1006900052F004020A6004E003490A6832F00402DE
:1006A0000A6070470000000010E000E062F30F22D3
:1006B00062F31F42401810F0030308D0C91A1FD379
:1006C000DB0748BF00F8012D28BF20F8022D1300DA
:1006D00030B414461546103928BF20E93C00FAD83A
:1006E000490728BF20E90C0048BF40F8042D8900C5
:1006F00028BF20F8022D48BF00F8012D30BC7047FC
:10070000C91818BF00F8012DCB0728BF00F8012D2C
:10071000704730B40EE00268436802440830DC07DA
:1007200044BFA9F10104E31852F8045B43F8045BE9
:10073000091FF9D150F8041B0029ECD130BC7047D7
:10074000F0B50022002300240025102D5CD20126E4
:1007500016FA05F213000A681A4014009C4251D19F
:1007600003270268AC465FFA8CFC5FEA4C0C17FA70
:100770000CFC32EA0C020260D0F800C091F804E0F0
:100780002A00D2B252001EFA02FE5EEA0C0CC0F839
:1007900000C00A79012A02D00A79022A22D182688D
:1007A000AC465FFA8CFC5FEA4C0C17FA0CFC32EAA0
:1007B0000C028260D0F808C091F805E02A00D2B29D
:1007C00052001EFA02FE5EEA0C0CC0F808C0426835
:1007D000AE4032EA0606466042688E79AE40B6B256
:1007E00032434260C6682A00D2B25200974036EACD
:1007F0000707C760C668CF792A00D2B25200974077
:100800003E43C6606D1CA0E7F0BD000080B53C48CB
:10081000016851F4700101603A49086850F0010024
:1008200008600020384A10600A68384802400A60B0
:100830003748384A1060086830F48020086000208B
:100840003549086000F005F85FF000603349086042
:1008500001BD82B000200190002000902949086865
:1008600050F480300860086810F40030009001985F
:10087000401C01900098002803D10198B0F5A04FCA
:10088000F1D10868800302D50120009001E000202A
:100890000090009801282FD12148026852F0805220
:1008A00002602048026852F4404202601648026822
:1008B0000260026852F400420260026852F4A052E0
:1008C0000260194A134B1A600A6852F080720A607B
:1008D0000A689201FCD540F20571144A1160016862
:1008E000890889000160016851F002010160016816
:1008F00011F00C010829FAD102B070470000000085
:1009000088ED00E00038024008380240FFFFF6FEA4
:1009100010300024043802400C38024008ED00E09A
:10092000403802400070004019544007003C02402B
:10093000000C024000400000000C0240008000005B
:10094000000C024001000000000C02400200000008
:100950000010024080000000001002400001000072
:1009600000100240000200000010024000040000DD
:1009700000100240000800000010024000100000BB
:100980000010024000200000001002400040000063
:100990000010024000800000000C02400001000036
:1009A000000C024000020000000C024000040000A5
:1009B000FEE7FEE7FEE7FEE7FEE7FEE7FEE7FEE70F
:1009C00007480168491C01600068C921B0FBF1F2C9
:1009D00001FB1200002802D1022002490860704782
:1009E000900000200000002010B50749794418311C
:1009F000064C7C44163404E00A68081D11448847FC
:100A00000146A142F8D110BD2C0000004C000000AE
:100A10004EF68851CEF20001086840F4700008607C
:100A2000BFF34F8FBFF36F8F4FF00070E1EE100AEE
:100A300070470000FBFAFFFF900000000C00002050
:100A400000000000CFFCFFFF0C0000007C00000055
:100A5000000000200000000000F00DF8002801D088
:100A6000FFF7C2FFAFF300800020AFF3008000F07B
:100A700004F800F008F80120704780B5FFF71FFC6C
:100A8000FFF734FCFCE700F001B8000007463846E9
:100A900000F002F8FBE7000080B5AFF30080024AE7
:100AA00011001820ABBEFBE726000200014880477A
:100AB000014800470D080008BD0A0008AFF3008098
:100AC000FFF7A6FFFFF7C8FF0100000000000000CD
:100AD00001000000FFF7FEBFFFF7FEBFFFF7FEBFFC
:100AE000FFF7FEBFFFF7FEBFFFF7FEBFFFF7FEBF3A
:100AF000FFF7FEBFFFF7FEBFFFF7FEBFFFF7FEBF2A
:100B0000FFF7FEBFFFF7FEBFFFF7FEBFFFF7FEBF19
:100B1000FFF7FEBFFFF7FEBFFFF7FEBFFFF7FEBF09
:100B2000FFF7FEBFFFF7FEBFFFF7FEBFFFF7FEBFF9
:100B3000FFF7FEBFFFF7FEBFFFF7FEBFFFF7FEBFE9
:100B4000FFF7FEBFFFF7FEBFFFF7FEBFFFF7FEBFD9
:100B5000FFF7FEBFFFF7FEBFFFF7FEBFFFF7FEBFC9
:100B6000FFF7FEBFFFF7FEBFFFF7FEBFFFF7FEBFB9
:100B7000FFF7FEBFFFF7FEBFFFF7FEBFFFF7FEBFA9
:100B8000FFF7FEBFFFF7FEBFFFF7FEBFFFF7FEBF99
:100B9000FFF7FEBFFFF7FEBFFFF7FEBFFFF7FEBF89
:100BA000FFF7FEBFFFF7FEBFFFF7FEBFFFF7FEBF79
:100BB000FFF7FEBFFFF7FEBFFFF7FEBFFFF7FEBF69
:100BC000FFF7FEBFFFF7FEBFFFF7FEBFFFF7FEBF59
:100BD000FFF7FEBFFFF7FEBFFFF7FEBFFFF7FEBF49
:100BE000FFF7FEBFFFF7FEBFFFF7FEBFFFF7FEBF39
:100BF000FFF7FEBFFFF7FEBFFFF7FEBFFFF7FEBF29
:100C0000FFF7FEBFFFF7FEBFFFF7FEBFFFF7FEBF18
:100C1000FFF7FEBFFFF7FEBFFFF7FEBFFFF7FEBF08
:100C2000FFF7FEBFFFF7FEBFFFF7FEBFFFF7FEBFF8
:080C3000FFF7FEBFFFF7FEBF56
:0400000508000ABD28
:00000001FF
